{
  "_format": "hh-sol-artifact-1",
  "contractName": "Box",
  "sourceName": "contracts/Box.sol",
  "abi": [
    {
      "anonymous": false,
      "inputs": [
        {
          "indexed": false,
          "internalType": "uint256",
          "name": "NewValue",
          "type": "uint256"
        }
      ],
      "name": "ValueChanged",
      "type": "event"
    },
    {
      "inputs": [],
      "name": "getNum",
      "outputs": [
        {
          "internalType": "uint256",
          "name": "",
          "type": "uint256"
        }
      ],
      "stateMutability": "view",
      "type": "function"
    },
    {
      "inputs": [],
      "name": "getVersion",
      "outputs": [
        {
          "internalType": "uint256",
          "name": "",
          "type": "uint256"
        }
      ],
      "stateMutability": "pure",
      "type": "function"
    },
    {
      "inputs": [
        {
          "internalType": "uint256",
          "name": "newNum",
          "type": "uint256"
        }
      ],
      "name": "setValue",
      "outputs": [],
      "stateMutability": "nonpayable",
      "type": "function"
    }
  ],
  "bytecode": "0x608060405234801561001057600080fd5b506101b9806100206000396000f3fe608060405234801561001057600080fd5b50600436106100415760003560e01c80630d8e6e2c14610046578063552410771461006457806367e0badb14610080575b600080fd5b61004e61009e565b60405161005b9190610142565b60405180910390f35b61007e60048036038101906100799190610106565b6100a7565b005b6100886100e8565b6040516100959190610142565b60405180910390f35b60006001905090565b806000819055507f93fe6d397c74fdf1402a8b72e47b68512f0510d7b98a4bc4cbdf6ac7108b3c59816040516100dd9190610142565b60405180910390a150565b60008054905090565b6000813590506101008161016c565b92915050565b60006020828403121561011c5761011b610167565b5b600061012a848285016100f1565b91505092915050565b61013c8161015d565b82525050565b60006020820190506101576000830184610133565b92915050565b6000819050919050565b600080fd5b6101758161015d565b811461018057600080fd5b5056fea2646970667358221220a57a68a57848b163bbc8da7b0ec5fcdb59838c4a27b05a42f797e8fe3089944764736f6c63430008070033",
  "linkReferences": {},
  "deployedLinkReferences": {}
}