{
  "_format": "hh-sol-artifact-1",
  "contractName": "BoxV2",
  "sourceName": "contracts/BoxV2.sol",
  "abi": [
    {
      "anonymous": false,
      "inputs": [
        {
          "indexed": false,
          "internalType": "uint256",
          "name": "NewValue",
          "type": "uint256"
        }
      ],
      "name": "ValueChanged",
      "type": "event"
    },
    {
      "inputs": [],
      "name": "getNum",
      "outputs": [
        {
          "internalType": "uint256",
          "name": "",
          "type": "uint256"
        }
      ],
      "stateMutability": "view",
      "type": "function"
    },
    {
      "inputs": [],
      "name": "getVersion",
      "outputs": [
        {
          "internalType": "uint256",
          "name": "",
          "type": "uint256"
        }
      ],
      "stateMutability": "pure",
      "type": "function"
    },
    {
      "inputs": [],
      "name": "increment",
      "outputs": [],
      "stateMutability": "nonpayable",
      "type": "function"
    },
    {
      "inputs": [
        {
          "internalType": "uint256",
          "name": "newNum",
          "type": "uint256"
        }
      ],
      "name": "setValue",
      "outputs": [],
      "stateMutability": "nonpayable",
      "type": "function"
    }
  ],
  "bytecode": "0x608060405234801561001057600080fd5b50610215806100206000396000f3fe608060405234801561001057600080fd5b506004361061004c5760003560e01c80630d8e6e2c14610051578063552410771461006f57806367e0badb1461008b578063d09de08a146100a9575b600080fd5b6100596100b3565b604051610066919061019e565b60405180910390f35b61008960048036038101906100849190610162565b6100bc565b005b6100936100fd565b6040516100a0919061019e565b60405180910390f35b6100b1610106565b005b60006002905090565b806000819055507f93fe6d397c74fdf1402a8b72e47b68512f0510d7b98a4bc4cbdf6ac7108b3c59816040516100f2919061019e565b60405180910390a150565b60008054905090565b600b600054016000819055507f93fe6d397c74fdf1402a8b72e47b68512f0510d7b98a4bc4cbdf6ac7108b3c59600054604051610143919061019e565b60405180910390a1565b60008135905061015c816101c8565b92915050565b600060208284031215610178576101776101c3565b5b60006101868482850161014d565b91505092915050565b610198816101b9565b82525050565b60006020820190506101b3600083018461018f565b92915050565b6000819050919050565b600080fd5b6101d1816101b9565b81146101dc57600080fd5b5056fea26469706673582212208f28f435dadedfa4fe78029bb9520076ac2d66d84c196f3db944aef6ac981c2c64736f6c63430008070033",
  "linkReferences": {},
  "deployedLinkReferences": {}
}